:060000000C948D000C942D
:1000060000000C9400000C9400000C9400000C946A
:1000160000000C9400000C9400000C9400000C945A
:1000260000000C9400000C9400000C9400000C944A
:1000360000000C9400000C9400000C9400000C943A
:1000460000000C9400000C9400000C940000102793
:10005600E80364000A00010000100001100001001E
:10006600FEFDFBF75469632D5461632D546F6520C3
:1000760047616D650A5072657373202A20746F207C
:1000860053746172742E2E2E0A0047616D652053DB
:10009600746172747320696E3A2564005475726EC9
:1000A600206F6620506C6179657220312C205800D3
:1000B6005475726E206F6620506C617965722032BD
:1000C6002C204F00506C61796572203120776F6E5D
:1000D600212C2058203A2900506C61796572203213
:1000E60020776F6E212C204F203A29004974277300
:1000F600204472617720210080C00400AA026600B5
:10010600260060026A000C008602F2000200C202AB
:10011600FE000000F894EE27ECBBF1E0FBBFEBBF5E
:10012600E5BF8DE0A2E0BB27ED938A95E9F780E075
:1001360098E0A0E6ED930197E9F7E0E0F1E085911C
:100146009591009761F0A591B59105901590BF0125
:10015600F00105900D920197E1F7FB01F0CFEFE575
:10016600EDBFE8E0EEBFC0E6D2E00C94C002882402
:100176009924E4E0F0E08E169F065CF5E3E0F0E0FB
:100186005F01AAEAB2E0A80DB91DEC91E8BBB499EB
:1001960002C0AA24BB24B59903C0E1E0F0E05F01E8
:1001A600B69903C0E2E0F0E05F01E3E0F0E0EA15B3
:1001B600FB0539F0B49BFECFB59BFECFB69BFECFB9
:1001C6000895A1E0B0E00E94DA06F40131964F01ED
:1001D600D0CFCDCFE1E0F0E02F01E0E0E093A60242
:1001E600E093A702882499240E94D505BCF4AA248A
:1001F600BB24E3E0F0E0AE16BF0664F40E94DA0525
:100206000E94E205E0E0F0E0ED93FC93F501319603
:100216005F01EFCFF40131964F01E6CF8824992490
:10022600AA24BB240E946705A0E6B2E00E949505B9
:100236000E94E905E9E0F0E0EC15FD05C9F70E942A
:100246006705E3E0F0E0E093A402F093A502A09135
:10025600A402B091A5020E94190714F50E94F405A4
:10026600E0E9F0E0FA93EA93E091A402F091A502A6
:100276000E94EC060E94140784E00E94020528965C
:100286000E94F905A4E6B0E00E94DA060E9467051E
:10029600A4EAB2E0ED91FD913197FE93EE93D7CFAC
:1002A600E1E0EBBB08950E946705882499240E942B
:1002B600D50544F50E94FD05E4E0F0E0AE16BF0664
:1002C600DCF40E940A060E941206E130A0E0FA075A
:1002D60011F4A8E50BC00E94DA050E941206EF3F52
:1002E600AFEFFA0711F4AFE401C0ADE20E94750565
:1002F600F50131965F01E0CF0E941C06F4013196AC
:100306004F01D5CF0E94250629F40E942A06E2EA6B
:10031600F0E004C00E942A06E6EBF0E0FA93EA93C6
:100326000E9430060895BA93AA930E94670588240E
:1003360099240E94D50544F50E94FD05E4E0F0E00D
:10034600AE16BF06DCF40E940A060E941206E130D1
:10035600A0E0FA0711F4A8E50BC00E94DA050E9496
:100366001206EF3FAFEFFA0711F4AFE401C0ADE2BA
:100376000E947505F50131965F01E0CF0E941C06CB
:10038600F40131964F01D5CFA881B981119799F41F
:100396000E942A06EAECF0E0FA93EA930E943006FD
:1003A6000E9435060E943B062CF40E9441060E94DC
:1003B6004706F8CF30C0A881B981AF3FEFEFBE073F
:1003C60099F40E942A06EEEDF0E0FA93EA930E9471
:1003D60030060E9435060E943B062CF40E94570602
:1003E6000E944706F8CF17C0E0E0EA93A0E00E941B
:1003F6005605A6E8B2E00E9495050E9435060E94C1
:100406003B064CF4E3E0EBBBA9E1B0E00E94DA0660
:100416000E944706F4CF0C94650566247724E09184
:100426009402F09195020E945D0641F40E946406D2
:100436000E945D0619F40E94690609F403C00E9431
:100446006F0699C0A0919802B09199020E94740615
:1004560069F4A0919802B09199020E947B0631F44A
:10046600E0919802F0919902309709F405C06090E6
:100476009802709099027FC0A0919E02B0919F024F
:100486000E94820659F4A0919E02B0919F020E949A
:10049600890621F40E949006309709F405C0609001
:1004A6009E0270909F0267C0E0919802F0919902B7
:1004B6000E945D0641F40E9490060E945D0619F4B2
:1004C6000E94690609F403C00E946F0654C0A091F9
:1004D6009402B09195020E94740669F4A091940268
:1004E600B09195020E94820631F4E0919402F09157
:1004F6009502309709F405C06090940270909502B9
:100506003AC00E9495060E947B0649F40E94950611
:100516000E94890621F40E946406309709F401C0FE
:1005260026C0E0919A02F0919B020E945D0651F46A
:10053600E091A202F091A3020E945D0619F40E94C6
:10054600690609F403C00E946F0615C00E9495064D
:100556000E94740659F40E9495060E949006EA17B6
:10056600FB0721F40E946406309709F404C06090EA
:10057600960270909702F301089520E030E0E3E0E0
:10058600EABBE0E0EBBBEFE0E7BBE0E0E8BBE4BBE7
:10059600E5BBEFEFE1BBE0E0E2BBE3BFE2BFECBFF0
:1005A600EFBDEEBDEDBDECBDE7BDE6BDEBBDEABD05
:1005B600E9BDE8BDE2BDE5BDE4BDE3BDE9BFE5BF1C
:1005C600E4BFEAB9E0E8E8B9E0E0E0BFE6B9EDB9D2
:1005D600E6BFA4E10E94A605FDDD65DEC8DDE3E019
:1005E600F0E0E815F90519F0EA15FB0509F42CC049
:1005F6000E94DA050E94E2050E940C07309721F559
:100606000E94250651F40E94DA050E94E205E1E007
:10061600F0E0ED93FC93E2E009C00E94DA050E9447
:10062600E205EFEFFFEFED93FC93E1E0EBBB0E94F9
:10063600250619F4EFEFFFEF02C0E1E0F0E02F012D
:10064600A6EAB2E00E949A06F401A3E0B0E00E9496
:10065600F906EA0DFB1D6F01EAE0F0E0EC15FD0579
:1006660019F421E030E020C0D8DE8F01E1E0F0E0AF
:10067600E017F10721F4A1E0B0E055DE15C0EFEF79
:10068600FFEFE017F10721F4AFEFBFEF4CDE0CC030
:10069600A091A602B091A702199721F4A2E0B0E0BA
:1006A60042DE02C000DE9ACF022E032AC1F020E00D
:1006B60030E00E9435060E943B0674F40E94410613
:1006C6000E945706E091A802F091A9023196E093A4
:1006D600A802F093A902EFCFE0E0EBBB7DCF0E942A
:1006E600E905EAE0F0E0EC15FD05C9F775CFFFCFA7
:1006F600BA93AA93A991B991EE27FF276D91662324
:1007060011F03196FBCF0895BA93AA93AA27BB2777
:10071600E991F9910590002011F01196FBCFFD01AA
:100726000895BA93AA931A930A93AA81BB81129643
:100736000E940C07309729F1AA81BB8114960E946A
:100746000C078F01309761F00230E0E01E0780F061
:10075600F80131978F01AA81BB811496ED93FC9322
:10076600AA81BB8112960E949A063197AC81A0831A
:10077600AA81BB810E940C07FF2312F00E949A06F1
:1007860006C0AA81BB81EFEFFFEFED93FC931981C1
:10079600088125960895BA93AA9326970E941D0765
:1007A60010E0AC85BD85E0E0F0E0ED93FC93EA89CE
:1007B600FB893196EA8BFB8B3197E4912E2FE03043
:1007C60009F415C1E12FE03039F4253211F411E0B6
:1007D60002C00E94A0060AC1E130A9F4253219F42C
:1007E6000E94A00602C112E040E000E02D3211F4A2
:1007F60001E0FCC02B3211F44BE2F8C0203211F4B8
:1008060040E2F4C002C0E23039F450E013E0203395
:1008160011F40068EBC003C0E33009F0E7C02033F1
:1008260010F02A3308F007C0AAE05A9F502DE22F95
:10083600E0535E0FDBC0E22FE33649F40E94A706C1
:10084600E889F989A481AA930E94AD06CEC0E33750
:1008560041F40E94A7060E94B3060E947B031E2F46
:100866000AC0E03761F40E94A7060E94B3060E9400
:1008760087031E2F086002600F7730E034C0E4362D
:1008860011F0E93611F4046002C0E53731F4E4E50D
:10089600F0E0EE83FF8315E00CC0E83511F4086044
:1008A60003C0E83709F0A1C0EEE5F0E0EE83FF8370
:1008B60014E002FF14C00E94A7060E94BD06AB8585
:1008C600AA233AF4EA85FB850E94E806EA87FB87B5
:1008D6004DE2403011F01F5F01C00B7F04C00E9443
:1008E600A7060E94BD0600FD11C0151778F407FF84
:1008F60008C002FF04C00B7F242F115001C020E363
:1009060001C020E20E94A0065150EFCF312F01FF17
:1009160017C03030A1F003FF06C0EE81FF8125919C
:10092600EE83FF8305C0AE81BF812D91AE83BF8369
:100936000E94A006503009F051503150EACF4BC00A
:1009460020E3EE81FF810E941007E887F987EE8198
:10095600FF813296EE83FF83E885F985AA85BB85FC
:10096600AE17BF0750F02F5FA885B985EA85FB85CE
:10097600EA1BFB0BEA87FB87EFCF2A3328F003FF3E
:1009860002C0295F01C0295D04FD1AC0213320F48D
:10099600A885B985119709F409C0531710F000FF0F
:1009A60001C013C020E207FF0BC020E3006102FF75
:1009B60007C00B7F4A930E94AD06503009F0515094
:1009C6000E94A006503009F051503150A885B985D3
:1009D600129708F0B5CF00FF08C0503031F05150E3
:1009E600E0E2EA930E94AD06F8CF10E0E0CEAC85D7
:1009F600BD850E940C070E94240764960895FF9205
:100A0600F82E26970E941F070E94C506309719F4F4
:100A1600EFEFFFEF23C0DE0116960E94E4068D017C
:100A26000E94C506EE83FF83E0E0E887E987DE01E2
:100A36001A960E94E4060E940C07FA93EA931A9308
:100A46000A93E4E9F3E0FA93EA93DE011A96A3DE49
:100A56009F01AE81BF81E0E0EC93F9010E94260779
:100A66002A96FF900895AA93E2B3EF70AE2FE8811D
:100A7600E07FEA2BE2BB8DE08A95F1F7929A8DE052
:100A86008A95F1F792988DE08A95F1F789C0AA9335
:100A9600A881E9DFE881E295E883A881E4DF85E8BB
:100AA6008A95F1F77DC0AA93E881F0E0EE53FD4FF9
:100AB600E081A981AE0FEBDFE981E093C602E88110
:100AC600E093C70222960895A2E00E94CC06ACE00D
:100AD600DEDFA1E00E94CC06E0E0E093C702E093EF
:100AE600C6020895AA93A881AA3031F0E091C802FF
:100AF600A091C602AE1760F0E0E0EA93A091C702AB
:100B0600AF5FA093C702CFDFA881AA3009F448C01F
:100B1600E091C602EF5FE093C602909AA881B7DF24
:100B260090983EC0BA93AA931A93A981BA81ED917F
:100B3600A983BA831E2FE03019F0A12FD3DFF5CF9A
:100B4600188123960895AA93E1B3E06FE1BB8A9AD0
:100B5600889A899A929890989198E881E093C80229
:100B6600E058E093C402E881E054E093C502A4E1B2
:100B7600B0E00E94DA060E94D2060E94D2060E94C7
:100B8600D206A0E270DF88EC90E00197F1F7A8E2C8
:100B96007EDFA4E07CDFA5E87ADFA6E078DF94DFDD
:100BA60021960895E3E0F0E08E169F060895F4017D
:100BB600A6E0B0E00E94F106EE56FD4F0895DF0173
:100BC600F501EE0FFF1FAE0FBF1F08950E94BA007A
:100BD600F401A3E0B0E00E94F906EA0DFB1D6F01E7
:100BE6000895EEEAF2E0FA93EA930895AEEAB2E0E7
:100BF6000C949505E8E0EA93A82DAF5F0E94560590
:100C0600ACE70E947505E1E0F0E05F010895EA2D8A
:100C1600E85FEA93A82DAF5F0E945605C8CFDF01B3
:100C2600F5013197EE0FFF1FAE0FBF1F0E940C0795
:100C36000895ECE0EA93A82DAF5F0E945605ACE755
:100C46000C947505E1E0F0E0E415F5050895E0E0A3
:100C5600EA93A0E00E945605C4CF80E00E940205F8
:100C66002496C4CFE0E0E093A802E093A902089599
:100C7600A091A802B091A9021A970895E1E0EBBBF2
:100C8600A9E1B0E00C94DA06E0E0EBBBA9E1B0E044
:100C96000E94DA06E091A802F091A9023196E0934B
:100CA600A802F093A9020895E2E0EBBBA9E1B0E047
:100CB6000C94DA06A0919202B0919302EA17FB0710
:100CC6000895E0919602F09197020895A0919202FC
:100CD600B0919302109708956090920270909302DB
:100CE6000895E0919A02F0919B02EA17FB07089596
:100CF600E0919C02F0919D02EA17FB070895E091AE
:100D0600A002F091A102EA17FB070895E091A20262
:100D1600F091A302EA17FB070895E0919E02F09175
:100D26009F020895A0919602B09197020895ED91C1
:100D3600FD913196FE93EE9308952A93AD85BE8577
:100D4600EF85F88909950895E889F9893497E88B3C
:100D5600F98B0895AD85BE85EF85F88909950895C7
:100D6600A889B98914960E940C07EE83FF83AE8189
:100D7600BF810895A889B98914960E940C07EA874D
:100D8600FB870895DE011C960E94E4060E940C076C
:100D960008950E944A05A3E0B0E00C94DA06A0E3A9
:100DA6000E94360588EC90E00197F1F708951096B9
:100DB60039F0A89580ED97E00197F1F71197C9F7FB
:100DC60008950024AF0DB01D0895F195E195F0400A
:100DD60008956F2F660F660B762F0895FA9FF02DF4
:100DE600EB9FF00DEA9FE02DF10D089504D0F6DF9C
:100DF6000EF4EBDF0895E894F7FF02C0E6DF68948F
:100E0600B7FF06C0A095B095119600F8039400FAB6
:100E16000895ED91FC91119708950590F491E02DB8
:100E260008957A936A93FA93EA93089500240A162A
:100E36000B0608955A934A933A932A931A930A9360
:100E460008955D814C813B812A811981088108952D
:00000001FF
